S0110000533747325F475549582E7372656374
S3150000000090AF07201D920100918C0100199201000A
S3150000001019920100199201001992010000000000D6
S31500000020000000000000000000000000199201001E
S315000000301992010000000000A9D1010051D201006F
S31500000040F99A0000B56F01000D700100657001009E
S315000000505159010051590100B94E0100B94E010034
S31500000060B94E0100913B0100AD360100553A010041
S315000000709D380100BD450100F945010055240100E8
S315000000800D250100B12401004DFE0000F1FC000029
S31500000090CDFD0000FDFB0000450E0100AD11010085
S315000000A0890F0100FFFFFFFFFFFFFFFFFFFFFFFFBD
S315000000B0FFFFFFFFFFFFFFFFFFFFFFFFFFFFFFFF4A
S315000000C0FFFFFFFFFFFFFFFFFFFFFFFFFFFFFFFF3A
S315000000D0FFFFFFFFFFFFFFFFFFFFFFFFFFFFFFFF2A
S315000000E0FFFFFFFFFFFFFFFFFFFFFFFFFFFFFFFF1A
S31500000400FFFFFFFFFFFDFFFFFFFFFFFFFFFFFFFFF8
S31500000410FFFFFFFFFFFFFFFFFFFFFFFFFFFFFFFFE6
S31500000420FFFFFFFFFFFFFFFFFFFFFFFFFFFFFFFFD6
S31500000430FFFFFFFFFFFFFFFFFFFFFFFFFFFFFFFFC6
S31500000440FFFFFFFFFFFFFFFFFFFFFFFFFFFFFFFFB6
S31500000450FFFFFFFFFFFFFFFFFFFFFFFFFFFFFFFFA6
S31500000460FFFFFFFFFFFFFFFFFFFFFFFFFFFFFFFF96
S31500000470FFFFFFFFFFFFFFFFFFFFFFFFFFFFFFFF86
S31500000480FFFFFFFFFFFFFFFFFFFFFFFFFFFFFFFF76
S31500000490FFFFFFFFFFFFFFFFFFFFFFFFFFFFFFFF66
S315000004A0FFFFFFFFFFFFFFFFFFFFFFFFFFFFFFFF56
S315000004B0FFFFFFFFFFFFFFFFFFFFFFFFFFFFFFFF46
S315000004C0FFFFFFFFFFFFFFFFFFFFFFFFFFFFFFFF36
S315000004D0FFFFFFFFFFFFFFFFFFFFFFFFFFFFFFFF26
S315000004E0FFFFFFFFFFFFFFFFFFFFFFFFFFFFFFFF16
S315000004F0FFFFFFFFFFFFFFFFFFFFFFFFFFFFFFFF06
S31500000500A4490420FD014400A8490420FA0143003F
S31500000510AC490420FB014308B0490420FC01431008
S315000005202008FE1FB6002B302408FE1FC0042B3007
S315000005306C4F04200B000650704F04200C00065828
S31500000540744F04200A000648B449042070081500B8
S31500000550B84904206D081508BC4904206F08151019
S31500000560C04904206E081518C4490420FF0145003F
S31500000570C8490420FE0145082808FE1F4800280037
S315000005802C08FE1F4A0028103008FE1F49002808C4
S31500000590784F0420770114087C4F0420740114104E
S315000005A0804F042076011420844F042075011428FE
S315000005B0A84A0420860D1410AC4A0420880D142085
S315000005C0B04A0420870D14282000000020000100F6
S315000005D02F0000002F0001000C0001001100000098
S315000005E0300000003000010024000000240001005B
S315000005F02400020024000300240004002400050057
S315000006001300000017000000230000002100000076
S31500000610210001000700000007000100070002009A
S315000006200700030007000400070005000700060096
S315000006300700070012000000440000000800000048
S315000006400B000000410000004000000040000100D7
S3150000065004000000430000002B0000002B000A00ED
S315000006602B000B002B000C002B000D002B000100B3
S315000006702B0002002B0003002B0004002B000500BA
S315000006802B0006002B0007002B0008002B0009009A
S315000006900600000006000A0006000B0006000C001B
S315000006A006000D0006000E0006000F000600010001
S315000006B0060002000600030006000400060005000E
S315000006C006000600060007000600080006000900EE
S315000006D015000000150001001500020031000000A1
S315000006E02A00000045000000100000000301000081
S315000006F003000000030001000F0000000D000000D1
S315000007002D000000420000002C0000002C0001001B
S315000007102C0002002C00030032000000280000001C
S31500000720180000001400000014000100140002006C
S315000007301400030014000400140005001400060051
S31500000740140007001400080014000900340000001B
S3150000075034000100160000001600010035000000FC
S3150000076036000000360001002200000033000000C1
S31500000770330100002900000010B5054C237833B979
S31500000780044B13B10448AFF300800123237010BD5E
S315000007908005FE1F0000000018B0030008B5034BDB
S315000007A01BB103490348AFF3008008BD00000000F9
S315000007B08405FE1F18B0030010B54FF0FF3200236A
S315000007C0026103750C6863684360A36883602388CD
S315000007D00380A3898381E389C3816368D3E9011216
S315000007E018681268904738B9A368D3E90112BDE8C2
S315000007F0104012681868104710BD00BF20B14FF0B6
S3150000080002230360002070470120704770B5D0E9CD
S3150000081001239968156804461868CB68984770B92B
S315000008200B4B01461B6A2088984702201CF046F9AC
S3150000083063689B6828461B699847122800D070BDDC
S3150000084063689B6828461B69BDE87040184700BF6F
S31500000850286003002DE9F0470A2782B006460D46B8
S3150000086091469846BA46736928469847B468CDF8C3
S3150000087000A00023424649462846A047B3690446DD
S31500000880284698470CB1013FEDD1204602B0BDE89D
S31500000890F08700BFF0B52E4A4368156A9E681F6848
S315000008A083B0002104460088A84702201CF006F900
S315000008B001212088A84702201CF000F900238DF8AA
S315000008C00430742304258DF8053027238DF806306F
S315000008D00DEB05022B46394630468DF80750FFF7DB
S315000008E0B9FF90BBC0238DF8053001AA0223394613
S315000008F030468DF80450FFF7ADFF30BB22238DF84C
S3150000090004300C238DF8053001AA022339463046FF
S31500000910FFF7A0FFC8B90B228DF805008DF804205B
S31500000920022301AA39463046FFF794FF68B9E0234F
S315000009308DF8043001AA394630460123FFF78AFFB5
S3150000094018B90523237503B0F0BD642003B0F0BDCC
S31500000950286003002DE9F04FD0E90123146895685B
S315000009609A6885B007468846186853684FF0FF3185
S315000009709847064618B1304605B0BDE8F08F032308
S3150000098088F804304FF00A0B6323A8F80000A8F893
S3150000099002008DF80B30D9466B6920469847012333
S315000009A0CDF800901A460DF10B01AE682046B0470F
S315000009B0AB698246204698472046BAF1000F11D10E
S315000009C06B699847CDF8009053466E6801220DF189
S315000009D00B012046B047AB69824620469847BAF1DC
S315000009E0000F07D0BBF1010BD6D16426304605B007
S315000009F0BDE8F08F9DF80B305B0748BF04234FF02E
S31500000A000A0948BF88F80430CA466B6920469847E9
S31500000A10CDF800A06E680023042203A92046B04743
S31500000A20AB690646204698471EB1B9F10109ECD1DB
S31500000A30DBE79DF80C309DF80D109DF80E2003F0B5
S31500000A400F0341EA0321BB8903FB01F12B4B02F0A3
S31500000A500F04A3FB0120091A00EB5101C90AA8F8EB
S31500000A6000109DF80F20F98942EA042201FB02F2E8
S31500000A70A3FB0213D21A03EB5203DB0AA8F80230D7
S31500000A803B7D5A1E012A10D9032B10D098F804304A
S31500000A903B75042B1AD0B8F900303B82B8F9023006
S31500000AA07B82304605B0BDE8F08F03233B7598F88E
S31500000AB00430032BECD1B7F91020B8F900309A4274
S31500000AC010D0022388F804303B75E4E7B7F91030FC
S31500000AD0A8F80030B7F91230A8F80230304605B051
S31500000AE0BDE8F08FB7F91220B8F902309A42E8D182
S31500000AF0012388F804303B75CDE700BF01011000E3
S31500000B0030B4039CE50624F0300C03D5D0F88050B1
S31500000B102D021DD5A50603D5D0F88050AD0217D5F8
S31500000B20ACF10D0CBCF1020F0AD9406AC0F8703165
S31500000B30029BC0E95A12C0E95D34002030BC704700
S31500000B40D0F8805015F4803FEFD1EDB2092DECD8E6
S31500000B50092380F8C63130BC184670472DE9F04F9E
S31500000B60074691B07C6A0A93BDF96C300893D4F8B5
S31500000B7078311F9EBDF868000B9003F010030793B1
S31500000B80D4F86C313D6BBDF974A0BDF978B08846D8
S31500000B900A999146B3F5006FBDF97020D4F870310B
S31500000BA0099201EB0802A8BF26F008069A42C8BFC0
S31500000BB05B1A0B99C8BF0D93D4F87431D8BFCDF822
S31500000BC0348001EB09029A42C6BF5B1A0E93CDF838
S31500000BD0389025B116F480730C9300F0F380E37D12
S31500000BE00C930321384601F047FA00221146384695
S31500000BF006F042FD079B002B00F04981D4F86831CE
S31500000C000D9306F00F01384607F0DEF80D9BD4F879
S31500000C1078011946D4E95B230190D4F87401009059
S31500000C20384606F061FFB00600F1BE804FF07F4304
S31500000C301A46F10640F1C1807006A16801D50A4343
S31500000C40E1680B43C4E9562394F80E3143F00503DB
S31500000C5084F80E31BDF82030102B40F246814FEA61
S31500000C600851B1FBF3FC4FEA6C03099A102A40F3D2
S31500000C7038814FEA0950B0FBF2F04210B10544BF8B
S31500000C80C3EB0843CCF1000C710544BFC2EB09422B
S31500000C904042710748BFA3F500433107079948BF93
S31500000CA0A2F5004229B10A9903EB01430B9902EB25
S31500000CB00142CDE9002C0022CDE9022204905A46D9
S31500000CC05146384606F0B4FC099B0193089B0093F5
S31500000CD052465B462146384600F050FD002D00F096
S31500000CE0CE8016F4807040F0CA802B78E375AB781E
S31500000CF084F80E316B7884F8D5306B68C4F8FC3014
S31500000D00AB68C4F80031EB68C4F82C3195F829308B
S31500000D1084F8E9302B69C4F838316B69C4F834318A
S31500000D2095F8283084F8E830AB69C4F8EC30EB6904
S31500000D30C4F8F0302B6AC4F8F4306B6AC4F8F830A3
S31500000D4095F82A3084F8EA3095F82B3084F8EB30A1
S31500000D50EB6AC4F83C312B6BC4F840316B6BC4F8BA
S31500000D602431AB6BC4F85831EB6BC4F85C31B5F980
S31500000D705430A4F8A830B5F95630A4F8AA30EB6C74
S31500000D80C4F8A0302B6DC4F8A4306B6CC4F898304E
S31500000D90AB6CC4F89C30EB6DC4F8B0302B6EC4F865
S31500000DA0B43011B0BDE8F08F16F0800240F0A1809B
S31500000DB0F1064FF07F433FF53FAF700640F19D804F
S31500000DC0A1683CE7E37D2B7094F80E31AB7094F884
S31500000DD0D5306B70D4F8FC306B60D4F80031AB6062
S31500000DE0D4F82C31EB6094F8E93085F82930D4F842
S31500000DF038312B61D4F834316B6194F8E83085F8DA
S31500000E002830D4F8EC30AB61D4F8F030EB61D4F88C
S31500000E10F4302B62D4F8F8306B6294F8EA3085F837
S31500000E202A3094F8EB3085F82B30D4F83C31EB625D
S31500000E30D4F840312B63D4F824316B63D4F858319D
S31500000E40AB63D4F85C31EB63B4F9A830A5F8543041
S31500000E50B4F9AA30A5F85630D4F8A030EB64D4F82B
S31500000E60A4302B65D4F898306B64D4F89C30AB640E
S31500000E70D4F8B030EB65D4F8B4302B66B1E60C99F3
S31500000E80384601F0F9F8002011B0BDE8F08FD4F82B
S31500000E90783123F03003422B32D8DFE803F04E5F7F
S31500000EA06A5F5F446A5F5F4E4E4E4E4E4E4E313124
S31500000EB0313131313131313131313131313131311C
S31500000EC0313131313131313131313131313131310C
S31500000ED031313131313131313131313131316A5F95
S31500000EE05F0000224FF48030C8E600234FF4803CB8
S31500000EF0BBE600234FF07F429BE663F07F43A1E60B
S31500000F0006F00F01384606F05FFF0022D4F878019C
S31500000F100D9B1146D4F86C2101900E98009038462E
S31500000F2006F0E2FD7FE6D7F880309B022CD5184B01
S31500000F30C4F82C31012384F8E930DDE90A31D4F80C
S31500000F406C2102FB0133D4F868211A4406F00F0124
S31500000F5038460F9206F038FF0F9AD7E7DDE90A31D7
S31500000F60D4F86C2102FB0133D4F8682102EB43026A
S31500000F70ECE7DDE90A31D4F86C2102FB0133D4F841
S31500000F80682102EB8302E1E7092087F8C60108E73A
S31500000F90100004002DE9F04385B09146BDF93020DC
S31500000FA0A9F1100698461644BDF93430B6B2A8F138
S31500000FB010051D4406F10F0323F00F03ADB2ADF883
S31500000FC00C3005F10F0323F00F03ADF80E3029F0B6
S31500000FD00F030F46ADF8083002A928F00F030446A8
S31500000FE0ADF80A3007F0D0FD10B905B0BDE8F083C2
S31500000FF03946204605F096FD97F8D5309A0736B261
S315000010002DB233D4DB0700F1BC800023009302AA83
S315000010103946204602F05EFF0023054602AA3946FD
S31500001020204605F0B9F8002302AA3946204606F004
S31500001030FDFED4F8B83103F10802C4F8B821002245
S31500001040C3E90025D4F8BC31013B9342C4F8BC3156
S3150000105003DCD4F8C031204698472046002202A976
S3150000106006F02CF8012005B0BDE8F083D80700F1A2
S31500001070888049EA060248EA0503120703F00F03CF
S3150000108000F0AA81002B40F02982BDF90830D4F87F
S31500001090B821A3EB09031B0303F58033042102F1F6
S315000010A00800C4F8B801C2E90013D4F8BC31013B0A
S315000010B0002BC4F8BC3140F35A83D4F8B8310A2265
S315000010C003F10801C4F8B8111A604FF480325A606F
S315000010D0D4F8BC31013B002BC4F8BC3140F3428349
S315000010E0D4F8B831102203F10801C4F8B8111A6017
S315000010F000225A60D4F8BC31013B9342C4F8BC319B
S3150000110040F32B83BDF90830F61AD4F8B83136030C
S3150000111003F10802C4F8B82106F5803605225E60A0
S315000011201A60D4F8BC31013B002BC4F8BC3140F343
S315000011300F83D4F8B83103F10802C4F8B821A54AE0
S315000011400B26C3E90062D4F8BC31013B002BC4F87E
S31500001150BC3140F3F882D4F8B83103F10802C4F880
S31500001160B82111250022C3E90052D4F8BC31013B55
S315000011709342C4F8BC3140F3AC81032300930223AD
S3150000118045E7BDF90820D7F81031A2EB0909D4F8D4
S31500001190B82103FB09F903EB1913042102F1080036
S315000011A0C4F8B801C2E90013D4F8BC31013B002BE6
S315000011B0C4F8BC3103DCD4F8C03120469847D4F8D3
S315000011C0B831D7F8102103F10801C4F8B8115A60F4
S315000011D00A221A60D4F8BC31013B002BC4F8BC319A
S315000011E003DCD4F8C03120469847D4F8B831102231
S315000011F003F10801C4F8B8111A6000225A60D4F845
S31500001200BC31013B9342C4F8BC3103DCD4F8C03195
S3150000121020469847BDF90830F61AD7F8103103FB77
S3150000122006F603EB1616D4F8B831052203F10801C9
S31500001230C4F8B811C3E90026D4F8BC31013B002B31
S31500001240C4F8BC3103DCD4F8C03120469847D7F83F
S3150000125010315A42D4F8B8310B2103F10800C4F812
S31500001260B801C3E90012D4F8BC31013B002BC4F825
S31500001270BC3103DCD4F8C03120469847D4F8B831E5
S31500001280112203F10801C4F8B8111A6000225A604D
S31500001290D4F8BC31013B9342C4F8BC3103DCD4F82A
S315000012A0C03120469847BDF90A30D4F8B821A3EBDF
S315000012B00808D7F8103103FB08F803EB18130621CA
S315000012C002F10800C4F8B801C2E90013D4F8BC3131
S315000012D0013B002BC4F8BC3103DCD4F8C0312046F6
S315000012E09847D4F8B8310C2203F10801C4F8B811B4
S315000012F01A6000225A60D4F8BC31013B9342C4F80C
S31500001300BC3103DCD4F8C03120469847D4F8B83154
S31500001310D7F8102103F108001221C4F8B801C3E977
S315000013200012D4F8BC31013B002BC4F8BC3103DCFD
S31500001330D4F8C03120469847BDF90A30D7F81021B5
S31500001340ED1AD4F8B83102FB05F502EB151503F1D9
S3150000135008010722C4F8B811C3E90025D4F8BC3146
S31500001360013B002BC4F8BC3103DCD4F8C031204665
S315000013709847D4F8B83103F10802C4F8B8210D2112
S315000013800022C3E90012D4F8BC31013B9342C4F8F1
S31500001390BC3103DCD4F8C03120469847D7F8102179
S315000013A0D4F8B831524203F10801C4F8B8115A60B2
S315000013B013221A60D4F8BC31013B002BC4F8BC31AF
S315000013C003DCD4F8C031204698470F23009304234A
S315000013D01DE600BF0000FFFF002B3FF416AEBDF96F
S315000013E00A30D4F8B821A3EB08031B0303F58033B6
S315000013F0042102F10800C4F8B801C2E90013D4F8C8
S31500001400BC31013B002BC4F8BC3140F36081D4F8F9
S31500001410B8310A2203F10801C4F8B8111A60002293
S315000014205A60D4F8BC31013B9342C4F8BC3140F356
S315000014304981D4F8B831102203F10801C4F8B81173
S315000014401A604FF480325A60D4F8BC31013B002B4D
S31500001450C4F8BC3140F33181BDF90A30ED1AD4F835
S31500001460B8312D0303F10802C4F8B82105F580351B
S3150000147005225D601A60D4F8BC31013B002BC4F82C
S31500001480BC3140F31581D4F8B83103F10802C4F831
S31500001490B8214FF00B0E0022C3E900E2D4F8BC31AC
S315000014A0013B9342C4F8BC3140F3FD80D4F8B83117
S315000014B003F10802C4F8B821AF4A4FF0110CC3E992
S315000014C000C2D4F8BC31013B002BC4F8BC313FF755
S315000014D054AED4F8C031204698474EE6BDF90830E0
S315000014E0D4F8B821A3EB09031B0303F580330421C9
S315000014F002F10800C4F8B801C2E90013D4F8BC31FF
S31500001500013B002BC4F8BC3140F31881D4F8B83144
S315000015100A2203F10801C4F8B8111A604FF48032A8
S315000015205A60D4F8BC31013B002BC4F8BC3140F3FF
S315000015300081D4F8B831102203F10801C4F8B811BB
S315000015401A6000225A60D4F8BC31013B9342C4F8B9
S31500001550BC3140F3E980BDF90830F61AD4F8B83149
S31500001560360303F1080106F580360522C4F8B811E2
S31500001570C3E90026D4F8BC31013B002BC4F8BC31CA
S3150000158040F3CD80D4F8B8317B4A03F10801C4F8A2
S31500001590B8115A600B221A60D4F8BC31013B002BFB
S315000015A0C4F8BC3140F3B680D4F8B831112203F147
S315000015B00801C4F8B8111A6000225A60D4F8BC3188
S315000015C0013B9342C4F8BC3140F39F80BDF90A3019
S315000015D0D4F8B821A3EB08031B0303F580330621D7
S315000015E002F10800C4F8B801C2E90013D4F8BC310E
S315000015F0013B002BC4F8BC3140F38280D4F8B831EB
S315000016000C2203F10801C4F8B8111A6000225A60CE
S31500001610D4F8BC31013B9342C4F8BC316BDDD4F83D
S31500001620B831122203F10801C4F8B8111A604FF458
S3150000163080325A60D4F8BC31013B002BC4F8BC316F
S3150000164054DDBDF90A30ED1AD4F8B8312D0303F193
S315000016500802C4F8B82105F5803507225D601A60D6
S31500001660D4F8BC31013B002BC4F8BC3139DDD4F8C9
S31500001670B83103F10802C4F8B8210D200022C3E9ED
S315000016800002D4F8BC31013B9342C4F8BC3123DDDF
S31500001690D4F8B83103F10802C4F8B821364A132148
S315000016A0C3E9001286E6D4F8C03120469847FDE625
S315000016B0D4F8C03120469847E5E6D4F8C031204634
S315000016C09847C9E6D4F8C03120469847B1E6D4F821
S315000016D0C031204698479AE6D4F8C031204698474C
S315000016E0D6E7D4F8C03120469847C0E7D4F8C031D1
S315000016F020469847A5E7D4F8C031204698478EE79C
S31500001700D4F8C0312046984778E7D4F8C03120464F
S3150000171098475BE7D4F8C0312046984744E7D4F8A9
S31500001720C031204698472DE7D4F8C0312046984767
S3150000173011E7D4F8C03120469847FAE6D4F8C0310C
S3150000174020469847E2E6D4F8C0312046984702E59D
S31500001750D4F8C03120469847EBE4D4F8C03120468F
S315000017609847CFE4D4F8C03120469847B8E4D4F877
S31500001770C03120469847A0E40000FFFF30B4BDF911
S315000017800840BDF90C5034B1002D04DDCDE9024509
S3150000179030BCFFF7FFBB002030BC704700B583B0FC
S315000017A08C46BDF9101043B1002906DD0191816A0E
S315000017B0009313466246FFF7EDFB002003B05DF889
S315000017C004FB00BF00B583B08C46BDF9101073B1A1
S315000017D000290CDDCDE90031B0F87030C16A134440
S315000017E0B0F86E2062441BB212B2FFF7D3FB0020A2
S315000017F003B05DF804FB00BF2DE9F04F05468DB040
S31500001800B5F96C60BDF95800002E48DD102E0F4664
S315000018109846E96A0BD091F8D730012B43D1B1F93C
S31500001820D830B3423FDD91F8D530DB073BD494B2D4
S315000018301FFA80F9B2B209EB420A0FFA8AFAA31A22
S31500001840BAF1000F1BB261DD1FFA87FBABEB020298
S31500001850CDE9006A12B228460793FFF79BFBE96AB7
S31500001860079BB8F1000F58D03A46CDE900862846C6
S31500001870FFF790FBCDF804A000960BEB0802079B40
S31500001880E96A12B22846FFF785FB04EB0902E96A0A
S3150000189013B2CDE900863A462846FFF77BFB0020C7
S315000018A00DB0BDE8F08F92B2083810440196083AA0
S315000018B0C6F34F06BFB2921BA8F1080812B2B8448D
S315000018C0083FADF82220ADF8262000230422BF1BD6
S315000018D0B04406443FB20FFA88F836B2029200923C
S315000018E0CDE90333284608AAADF82070ADF82C7070
S315000018F0ADF82480ADF82880ADF82A60ADF82E60EA
S3150000190004F01EFD00200DB0BDE8F08FB8F1000F09
S31500001910C5D0CDE900863A46B4E7CDE9006A3A4635
S315000019202846FFF737FBBAE72DE9F04182B01C469F
S31500001930BDF920600096054620340F46904624B235
S31500001940FFF75AFF284605F069F87CB1203636B213
S31500001950002E0BDDA8F11003A7F110020196A96A6B
S3150000196000941BB212B22846FFF714FB284605F076
S315000019707BF8002002B0BDE8F08100BF2DE9F04100
S3150000198082B00446BDF92070EBB1002F1BDDCDE916
S3150000199000371D46B0F8703016461344B0F86E2076
S315000019A00A4488461BB2C16A12B2FFF7F3FA204610
S315000019B005F034F80197A16A009533464246204661
S315000019C0FFF7E8FA02E0204605F028F8204605F081
S315000019D04BF8002002B0BDE8F08100BF2DE9F04FC2
S315000019E089B00446BDF94C60BDF94880002E0D460D
S315000019F092461F4640F3DF8008EB660189B292B239
S31500001A0002F10F00521A22F00F0208449BB2ADF801
S31500001A10182020F00F02ADF81C2003F10F025B1A0C
S31500001A2023F00F030A44ADF81A3022F00F03ADF885
S31500001A301E30A8EB6603082B35DDB5F9DA30002B2E
S31500001A4039DDBDF91820B4F97210D21A8A42A8BF3E
S31500001A5011B2BDF91A20ADF81810B4F97410D21AE3
S31500001A608A42A8BF11B2BDF91C20ADF81A10B4F90C
S31500001A7076101A448A42D8BF11B2BDF91E20ADF8BD
S31500001A801C109B461344B4F9782006A993422046BD
S31500001A90CCBFADF81E20ADF81E3007F075F890B932
S31500001AA009B0BDE8F08FB5F9DA30002B0FFA81F8EE
S31500001AB04FF00006C5DC06A920464FF0000B07F0E4
S31500001AC063F80028ECD0BDF81830AAEB030ABDF87D
S31500001AD01A302946FF1A204605F024F80FFA8AFA2A
S31500001AE0D5F828913FB2002E00F0CD8006FB06F314
S31500001AF0984505DD95F8D52012F0010200F08680A4
S31500001B0006EBD676C6F34F061FFA88F806EB0803EF
S31500001B1000221BB24FF0010BCDE9032B0193029279
S31500001B205346294620460097A8EB060600F02EFCF1
S31500001B3036B2764A029253460222CDE903BB00979B
S31500001B4001962946204600F021FCD4F8802009F4AD
S31500001B502069520149F0C50351D4009306AA042313
S31500001B602946204602F0B6F9D4F8B82102F1080158
S31500001B70C4F8B811002350601360D4F8BC21013AB0
S31500001B809A42C4F8BC2134DD4FF0000806AA294663
S31500001B902046002304F000FB0023294606AA20461F
S31500001BA006F044F92046424606A905F087FA0120C8
S31500001BB009B0BDE8F08F1FFA88F31FFA8AF103F126
S31500001BC00F000844C91A21F00F01BAB2ADF8181077
S31500001BD020F00F01ADF81C1002F10F01D21A0B44D0
S31500001BE022F00F0223F00F03ADF81A20ADF81E30D5
S31500001BF023E7D4F8C021204698469047C6E795F8D3
S31500001C00D520120602F080721343A6E706F11001F2
S31500001C1001EBD1714910090308F101080FFA88F3A5
S31500001C2002910121009701930392534604912046A5
S31500001C30294609F4007900F0A9FB49F4004343F072
S31500001C404103009306AA02232946204602F042F9E0
S31500001C50D4F8B831360303F108011622C4F8B811D6
S31500001C60C3E90026D4F8BC31013B002B0746C4F873
S31500001C70BC3146DDD4F8B82102F10801C4F8B81128
S31500001C800023576078E70121534632460491CDE997
S31500001C90026629460097CDF80480204600F076FBC0
S31500001CA0D4F8802009F4007949F44003510143F047
S31500001CB0410305D595F8D520120602F0807213432C
S31500001CC0009306AA02232946204602F003F9D4F817
S31500001CD0B831002203F10801C4F8B811C3E90020A5
S31500001CE0D4F8BC31013B9342C4F8BC3103DCD4F8D0
S31500001CF0C03120469847D84408F10F084FEA181813
S31500001D0044E7D4F8C03120469847B3E70080FFFF88
S31500001D1010B582B00C46816A009313462246BDF97F
S31500001D2010400194FFF75AFE002002B010BD00BF1C
S31500001D3010B582B08E460093B0F87030BDF91040F1
S31500001D40C16A1344B0F86E20019472441BB212B2F9
S31500001D50FFF744FE002002B010BD00BF2DE9F0439E
S31500001D60B0F96C9085B0B9F1000FBDF9308017DD80
S31500001D701C46B8F1000F06460F461346A5B213DC03
S31500001D80C9F34F042C4408EBD87C04EB6C04CDF863
S31500001D90049024B2F16A00943A463046FFF71EFEDC
S31500001DA0002005B0BDE8F083C9F34F04A5EB680237
S31500001DB0121B12B20092CDF80490C16A03933A4600
S31500001DC0FFF70CFE039BDDE72DE9F04383B0B0F986
S31500001DD06CC0BDF92880B8F1000F04460F46914645
S31500001DE01E4615DDBCF1000F2BDC204604F016FE66
S31500001DF0CDF80480A16A00964B463A462046FFF786
S31500001E00EDFD204604F030FE002003B0BDE8F0836F
S31500001E10EBD1BCF1000FE8DDACF11003C3F3C03227
S31500001E2002FA83F30CF1080C06EB63030FFA8CF548
S31500001E301BB200930195C16A4B463A46FFF7CEFDA9
S31500001E40D3E708EB4C0C0FFA8CF5CDE900351346B9
S31500001E50C16A3A46FFF7C2FDC7E700BF2DE9F04168
S31500001E6082B01D460093B0F87030BDF92080174649
S31500001E701344B0F86E20CDF804800A4404460E469A
S31500001E801BB2C16A12B2FFF7A9FD204604F0C6FDD7
S31500001E90CDF80480A16A00953B4632462046FFF7FE
S31500001EA09DFD204604F0E0FD002002B0BDE8F08173
S31500001EB0F8B506464FF4BE7004F0FCF80446002858
S31500001EC000F098804FF07F43C0E95333C0F8543197
S31500001ED06FF07F43C0E90233022280F8D520002547
S31500001EE04FF480324FF0FF3710204FF4B053A082EA
S31500001EF0C4F810216660C4F8285184F80E51276191
S31500001F00C4F81C31D6F88030C4F8445113F0006F81
S31500001F10C4E94F554FF4703C4FF00401374BC4F8F9
S31500001F2034C108BF4FF480034FF4002C84F8E91045
S31500001F30C4F82031C4F82CC1D6F854C0C4F83021F6
S31500001F4043EA0C0343F4012343F4C063C4F8243189
S31500001F50C4F818210123AA22C4F81421C4F8D00019
S31500001F60E38284F8D4302583C4F8CC50C4E9312107
S31500001F70A4F80C3140F20113A4F8D6304023C4F87B
S31500001F80D83004F11C00C4E93F55C4E9415584F832
S31500001F900F51C4F8485101F095FF04F1340001F0E7
S31500001FA091FF04F14C0001F08DFF04F1640001F093
S31500001FB089FF04F17C0001F085FF04F1940001F033
S31500001FC081FF04F1AC0001F07DFF0D4BC4F8E43055
S31500001FD00C2384F8E830C4E93757C4F83871214631
S31500001FE0304605F00DFCF3692360F46186F8C651AE
S31500001FF02046F8BD012386F8C631F9E708004020DF
S315000020000103030338B5036A8B4205462FD00C46FD
S3150000201000F11C031A461B68A34206D0002BF9D117
S31500002020032385F8C631184638BD236813606B6AEA
S31500002030A34219D0EB6AA34204BF2B6AEB62AB6AD8
S31500002040A34204BF2B6AAB62D4F8080120B107F0A3
S31500002050A1FD0023C4F80831204604F02DF8002322
S3150000206085F8C631184638BD2B6A6B62E2E707234E
S3150000207080F8C631184638BD436A93F80E21D975E3
S3150000208042F00102022983F80E2118D00AD893F8EB
S31500002090D52022F00C0283F8D520002380F8C63123
S315000020A0184670470329F8D193F8D52042F00C0260
S315000020B083F8D520002380F8C6311846704793F878
S315000020C0D52022F0080242F0040283F8D52000232E
S315000020D080F8C6311846704703460231406A22F03E
S315000020E07F4240F82120596A91F80E21002042F0E3
S315000020F0010281F80E2183F8C6017047436A93F8FE
S315000021000E2142F0010C83F80EC193F812C09974A7
S315000021108C451CBF42F0070283F80E219A7DD20738
S3150000212044BF0906C3F84C11002380F8C63118468F
S31500002130704700BF10B4446A94F80E31032943F087
S315000021400103844684F80E3127D81A4B53F8211020
S31500002150032A22D8DFE802F027042A0241F4A0511C
S31500002160D4F82021D4F82C31C4F81C111343DCF820
S3150000217054201343D4F83C211343D4F8402113438D
S31500002180D4F8442113430B430022C4F824318CF8BD
S31500002190C62110465DF8044B704710208CF8C60126
S315000021A05DF8044B704741F48051D9E741F48061F2
S315000021B0D6E700BFE85C030010B4446A94F80E3119
S315000021C043F0010384F80E3100232376D0F88030E3
S315000021D01B01844623D401293AD099BB012A31D167
S315000021E04FF44001D4F82C21D4F81C31C4F8201146
S315000021F01343DCF854201343D4F83C211343D4F89A
S3150000220040211343D4F8442113430B430022C4F85E
S3150000221024318CF8C62110465DF8044B704703291B
S3150000222010D8124B53F82110032A0BD801A353F8E8
S3150000223022F000BF65220000E52100005F220000B9
S315000022405B22000010208CF8C6015DF8044B704735
S31500002250002AF7D14FF48001C4E741F0005141F064
S315000022608001BFE741F00051BCE700BFF85C030006
S31500002270436A69B193F8D520002142F0020283F83F
S31500002280D520C3F82811002380F8C63118467047B8
S3150000229010B493F8D5204FF48031C3F810114FF4E1
S315000022A0FC4422F003021021C3F8284183F8D5200C
S315000022B09982002380F8C6315DF8044B18467047B2
S315000022C0426A034602294FF000000CBF4FF0030C90
S315000022D0844682F8D61082F80FC183F8C60170478B
S315000022E0034600205A6A82F8D71083F8C601704761
S315000022F070B4DDE9035658B355EA060C446A1FD09C
S3150000230001EB410C04EBCC0CACF832300023CCE9E9
S315000023100963CCF82C30059BACF8302043F0010360
S31500002320CCF82050CCF81C30436A01228A40597EF2
S3150000233011435976002380F8C63170BC18467047A1
S31500002340637E012202FA01F123EA01016176F1E7D7
S31500002350022070BC704700BFD0F84C11027C90F888
S3150000236011C0090A6FF07F4301FB023201FB0C33F7
S3150000237090F80E1102F07F4203F07F4321F0020134
S31500002380C0E9542380F80E11704700BF2DE9F04FC5
S3150000239083B01D46BDF93490BDF9307091F8D53043
S315000023A01FFA89F690460E9A0092A5EB060A0F9A36
S315000023B001920446BE1BD807109A0FFA8AFA36B263
S315000023C040F1C2808B46002A40F063814A464FEABC
S315000023D0E9734FF078404FF0FF3131F02BFDBBF938
S315000023E014200902D31741EA1061000231F022FDE0
S315000023F006FB06FC0AFB0ACCBCF1000FB8BF0CF1C9
S31500002400FF0C4FEA2C2303FB01F24FEAEC7C0CFB9A
S31500002410002CA3FB00321CEB020202D50F3342F163
S315000024200002DBF810E109EBD979564406EB6906A0
S31500002430A6FB0EC94FEAE67B1B090EFB0B9943EA86
S3150000244002734FEA09194FEA0C169B1B4FEA221238
S3150000245049EA1C7962EB0909B9F1000F02DAFF3388
S3150000246049F100091B0A002943EA09690A4604DA08
S3150000247040F6FF72801841F10002000B40EA02525A
S31500002480C5F1080502FB05F56D0000F10081C7F1F5
S31500002490080702FB07F77F00019B48BF0F372D1186
S315000024A03F11002B67D0D4F8B811009BC9F1000981
S315000024B0A9EB030308F1040001F10806C4F8B861AA
S315000024C0C1E90003D4F8BC31013B002BC4F8BC3190
S315000024D005DCD4F8C031009220469847009AD4F81B
S315000024E0B8316D4203F1080008F10501C4F8B801DE
S315000024F0C3E90015D4F8BC31013B002BC4F8BC314C
S3150000250005DCD4F8C031009220469847009AD4F8EA
S31500002510B83103F10801C4F8B8117F4208F110017F
S315000025205F601960D4F8BC31013B002BC4F8BC31A4
S3150000253005DCD4F8C031009220469847009AD4F8BA
S31500002540B831C2EBC2725FE05AEA060340F08480FB
S31500002550C9F10805724A92FBF9F202FB05F56D0016
S3150000256048BF0F35C9EB49592D114FEAC9292F46E6
S31500002570019B002B97D1D4F8B831009E03F10800D7
S315000025804E4408F10401C4F8B801C3E90016D4F8B2
S31500002590BC31013B002BC4F8BC3105DCD4F8C0319A
S315000025A0009220469847009AD4F8B83108F1050100
S315000025B003F10800C4F8B801C3E90015D4F8BC312A
S315000025C0013B002BC4F8BC3105DCD4F8C0310092C5
S315000025D020469847009AD4F8B83108F1100103F163
S315000025E00800C4F8B801C3E90017D4F8BC31013BB0
S315000025F0002BC4F8BC3105DCD4F8C031009220466B
S315000026009847009AD4F8B831550003F10802C4F887
S31500002610B82108F10B02C3E90025D4F8BC31013B0F
S31500002620002BC4F8BC3103DCD4F8C03120469847EF
S31500002630D4F8B83108F1110203F10801C4F8B81151
S31500002640C3E90025D4F8BC31013B002BC4F8BC31EA
S315000026505FDD03B0BDE8F08F06FB06F3314A92FB5F
S31500002660F9F256440AFB0A3309EBD97906EB6909F4
S31500002670C5F1080583FB0263D210F60A02FB05F5D5
S3150000268046EA43566D00A6EB09397FF500AF0F35D4
S31500002690FDE6D4F880305B017FF598AEB1F91430D1
S315000026A0C5F108054FF0784191FBF9F1890191FBDD
S315000026B0F3F10A1102FB05F5C7F10807002D02FB2D
S315000026C007F706FB06F30AFB0A33B8BF0735002FE8
S315000026D0B8BF0737002BB8BFFF331B1283FB01308F
S315000026E000284FEAE5054FEAE70702DA0F3340F123
S315000026F00000B24409EBD979DBF810610AEB6909ED
S31500002700A9FB06694FEA131949EA0079A9EB86097C
S315000027102EE7D4F8C031204603B0BDE8F04F184785
S315000027200000F8FF0000C0FFF8B506461420B769A0
S315000027300D4603F0BFFC0446D8B10023C0E902539E
S31500002740B36ED80705EB850515D4A900304603F00E
S31500002750DFFC0546606035B300232361B36ED907FD
S3150000276005D4D6F88430DA0615D49B0709D400239D
S3150000277023602046F8BDA80003F09CFC0546606077
S31500002780E9E7A26802EB820204219200384607F0CC
S3150000279005FA2061EBE72946384607F02DFA0023B3
S315000027A020612360E5E7204603F086FC2C46E0E73F
S315000027B0F8B5876919B306460C460CE0696803F05C
S315000027C0C9FC2A691AB1D6F884309B070ED428466C
S315000027D003F072FC9CB1B36E13F0010F2546304630
S315000027E02468EBD0686803F067FCEAE73846042102
S315000027F007F0FCF9284603F05FFC002CEBD1F8BD8E
S3150000280010B583680446186838B143680022C26070
S3150000281023618368E361A06010BD216A2068FFF729
S3150000282083FF10B1A3681860EFE72368152283F8C9
S31500002830C72110BD70B543690546F3B101685A68F2
S315000028408E696AB100241A6852F8242004210134E2
S315000028501AB1304607F0CAF96B695A68A242F2D833
S31500002860186803F029FC686903F026FC286B18B188
S31500002870BDE8704003F020BC70BDD0E90001FFF751
S3150000288097FFF3E72DE9F041466982B00446002E32
S315000028903DD0C169002934D10368B069D3F81880E6
S315000028A0012840F29780A5683769AB686A68206995
S315000028B003EB830307EB830702EB8302EB680BB1A1
S315000028C01F60E960824207D9C3431A4422F003021B
S315000028D00432802131F0AEFCD5E90123102503EB4B
S315000028E08303316900959B00404607F089F9B36977
S315000028F03761013BB361204602B0BDE8F041FFF706
S315000029007FBFB369012B22D002B0BDE8F081036915
S31500002910764A1A6003695E60056983682A1DDA6073
S31500002920036940F2FF329A60C26986610C33013A4C
S315000029300361C261FFF764FF236893F9C731002B77
S315000029407BD1A3685B686B6002B0BDE8F081F26979
S315000029500368012AD3F8188041D9F568A768013AB7
S31500002960F2616868002800F0AC80FB68002B53D049
S3150000297018600023FB60A2692369032A0FD8DFE8E9
S3150000298002F0563F33021A6822F07F4242F00042BC
S315000029901A6040F2FF321A6123691433236100235F
S315000029A0A361E369A268013BE361D2E90123102731
S315000029B003EB8303316900979B00404607F020F93B
S315000029C06B68002B97D02B1DF3606A6873693261C0
S315000029D0B36190E7F269012ABFD88CD1012804BF00
S315000029E0152283F8C72186E71A8842F0004242F48E
S315000029F000021A6040F2FF32DA6010332361CEE73C
S31500002A001A7842F0802242F400021A6040F2FF3245
S31500002A109A600C332361C2E72369344A1A6023693A
S31500002A2058602369A2680433D3602369083340F2EF
S31500002A30FF3243F8042B2361B1E72369A269A3F1AE
S31500002A400C012161032A11D8DFE802F0162D1E02BF
S31500002A5053F80C2C22F07F4240F2FF3142F0004244
S31500002A6043F80C2C5960236914332361E36900226F
S31500002A70013BC4E9062347E740F2FF31A3F1080210
S31500002A8043F80C1C2261F1E733F80C2C194642F08E
S31500002A90004242F4000240F2FF3043F80C2C41F8A9
S31500002AA0040B2161E2E713F80C2C42F0802240F27D
S31500002AB0FF3142F4000243F80C2C43F8041C236156
S31500002AC0D4E7B26802EB820292000421404607F086
S31500002AD065F8686000287FF448AF2368012283F810
S31500002AE0C721686800283FF446AF3EE73280808001
S31500002AF082690369032A0BD8DFE802F00F021E1071
S31500002B001A7842F0802242F4000243F8082B03614F
S31500002B10C3690022013BC0E9062370471A6822F008
S31500002B207F4242F0004243F8102B0361C369002242
S31500002B30013BC0E90623F0E71A8842F0004242F45E
S31500002B40000243F80C2B0361C3690022013BC0E974
S31500002B500623E2E710B504460068816E11F02001F5
S31500002B6004D13B2200F5BC7031F064FB63686269F6
S31500002B70C4E9023362B11368D36063691A681268E4
S31500002B801A6163695A68DA6163695A699A616368A6
S31500002B905A6822619A680023C4E90632E36210BDCE
S31500002BA02DE9F047D0F818A088464FF00009D8F86C
S31500002BB0004014F0803F17D0B4F1803F43D0220488
S31500002BC044D5E4B2322C00F08280D8F804202146A5
S31500002BD0504601F04DFA202C70D0D8F8084014F079
S31500002BE0803F08F10808E7D1E7B2D8F80420394653
S31500002BF0504601F03DFA202FC4F30726C4F30745DB
S31500002C004FEA146456D0D8F808203146504601F0F1
S31500002C102FFA202E4AD0D8F80C202946504601F02B
S31500002C2027FA202D3ED0D8F810202146504601F034
S31500002C301FFA202C32D008F11408B8E7002C49DB23
S31500002C40E3B2FF2B1CD008F10408B0E72302F5D548
S31500002C50E5B2FF2D36D0D8F804202946504601F0BB
S31500002C6007FA202D56D0C4F30724D8F808202146A9
S31500002C70504601F0FDF9202C50D008F10C0896E7DB
S31500002C80C4F30729B9F1020F02D0B9F1040F1ED11E
S31500002C90504608F1040801F0F1F988E7504601F0C2
S31500002CA0EDF9C8E7504601F0E9F9BCE7504601F0F6
S31500002CB0E5F9B0E7504601F0E1F9A4E7504601F026
S31500002CC0DDF98AE7C4F30729B9F1020FE0D04846D7
S31500002CD0BDE8F087E6B2D8F804203146504601F048
S31500002CE0C7F9202EC4F30725C4F3074422D0D8F829
S31500002CF008202946504601F0BBF9202D16D0D8F8F9
S31500002D000C202146504601F0B3F9202C0AD008F1D8
S31500002D1010084CE7504601F0B1F9A4E7504601F01F
S31500002D20ADF9AAE7504601F0A9F9F0E7504601F0DF
S31500002D30A5F9E4E7504601F0A1F9D8E72DE9F04FEF
S31500002D40D0E96D53876EC4685B1B17F020072268B5
S31500002D5083B081464FEAE30854D1A6692369B8F1E6
S31500002D60000F46D002F18C0B02F5BC712046DFF84D
S31500002D70BCA15C4608358B4622E004EB810E4FF081
S31500002D8001020BF80120CEF800C003EB860299552C
S31500002D90C2F804C0C26A0136013216F00306C262E6
S31500002DA008D1C2690369013A1433012A0361C26179
S31500002DB040F286800137B84505F1080518D002684B
S31500002DC092F9C721A2B955E9021C1AF80120002A76
S31500002DD0DBD01BF90120002ACFD054F82120624510
S31500002DE004EB810ECBD10137B84505F10805E6D1D4
S31500002DF00446A661D9F8B4214023C9E96E2303B07D
S31500002E00BDE8F08FE36A4344E36292F9C731002BD1
S31500002E10F0D1A36943B32169B8F1000FEAD005F1F7
S31500002E20080202E00832002B75D052F8086C52F8FE
S31500002E30045CCE5401EB8300B8F1010803F10103F1
S31500002E40456003F003031546ECD1002BD2D123696C
S31500002E50C4F8188014332361E369013B012BE36155
S31500002E60C8D82046FFF70EFD5FEA980718BF002670
S31500002E7002D12EE0B7422AD0236893F9C731013632
S31500002E802BBB23692A681A70AA685A702A699A7035
S31500002E90AA69DA706A685A60EA689A606A69DA60EA
S31500002EA0EA691A61E3692269013B1432012B226146
S31500002EB0E36105F12005DDD82046FFF7E3FCD9E7FD
S31500002EC086610190FFF7DEFC0198036972E708F05E
S31500002ED00308B8F1000F8DD005F1080305EBC8080B
S31500002EE013E0A169206953F8046C53F8087C475431
S31500002EF04A1C00EB810502F0030243456E6003F1B4
S31500002F000801A2613FF476AF0B46226892F9C72109
S31500002F10002AE6D06EE7A361236914332361E369CF
S31500002F20013B012BE3619FD89BE700BF085D0300CF
S31500002F3010B50446FFF702FFE36899691A69032989
S31500002F400FD8DFE801F031251902116821F07F4121
S31500002F5040F2FF4041F00041116010611A691432DD
S31500002F601A61DA69013A0021012AC3E9061221D958
S31500002F70002084F8C60110BD118841F0004140F2DE
S31500002F80FF4041F400011160D06010321A61E8E799
S31500002F90117841F0802140F2FF4041F400011160B8
S31500002FA090600C321A61DCE740F2FF4142F8041BE4
S31500002FB01A61D6E71846FFF765FC002084F8C601BB
S31500002FC010BD00BF10B50446FFF7B8FEE368996967
S31500002FD01A6903290FD8DFE801F0312519021168B3
S31500002FE021F07F4140F2FF2041F000411160106165
S31500002FF01A6914321A61DA69013A0021012AC3E911
S31500003000061221D9002084F8C60110BD118841F0AE
S31500003010004140F2FF2041F400011160D0601032FF
S315000030201A61E8E7117841F0802140F2FF2041F46F
S315000030300001116090600C321A61DCE740F2FF215A
S3150000304042F8041B1A61D6E71846FFF71BFC00205E
S3150000305084F8C60110BD00BF2DE9F04103689D6EDE
S3150000306015F0010582B026D1D0E90274BC429E69F2
S31500003070804612D0236830461BB1E2680AB11B694C
S315000030801360D4E9012303EB8303216900959B00B8
S3150000309006F0B6FD2468A742ECD1A368D8F81C0058
S315000030A0626821691B1A03EB830300249B003046E8
S315000030B0009406F0A5FD02B0BDE8F08103689A6EA3
S315000030C0D20720D42DE9F041D0E90264B4429D69CB
S315000030D007460BD0D4E9012303EB83039B000421AD
S315000030E0284606F095FD2468A642F3D1F969A3683F
S315000030F062685B1A03EB830328469B00BDE8F04138
S31500003100042106F085BD704703689A6ED20726D45F
S315000031102DE9F041D0E90264B4429D69074611D019
S315000031202368042128461BB1E2680AB11B691360B3
S31500003130A368226903EB83039B0006F069FD2468FC
S31500003140A642EDD1F969A36822695B1A03EB8303F2
S3150000315028469B00BDE8F041042106F059BD7047A2
S315000031602DE9F0410C4682B0054608681746FFF780
S31500003170E5FDA2692369032A0FD8DFE802F040348F
S3150000318028021A6822F07F4242F000421A6040F29A
S31500003190FF321A61236914332361E3690022013B7C
S315000031A0C4E90623EB6F002B60D06369002B51D076
S315000031B05FBB0023E3612046FFF764FB6369A268F7
S315000031C0E260002B3AD0186902B0BDE8F0811A8897
S315000031D042F0004242F400021A6040F2FF32DA6026
S315000031E010332361D9E71A7842F0802242F40002B4
S315000031F01A6040F2FF329A600C332361CDE740F249
S31500003200FF3243F8042B2361C7E7206800F050FA29
S31500003210A268E169D2E901235B1A616903EB8303C2
S315000032200025096900959B0006F0EAFC2046FFF799
S3150000323091FC0020606202B0BDE8F081D5F88430D0
S3150000324013F0120F02D010690028BDD1206902B018
S31500003250BDE8F081D5F884309A07204624D4DB06F1
S315000032601DD5FFF751FF002FA3D0DFE7D4F8088064
S31500003270D8F80030EBB1A36A01333C2BA36294D19A
S31500003280D8F8006000E0884631463668002EFAD14C
S315000032902068FFF78DFAC8F80060A66285E7FFF799
S315000032A00DFF002F85D0C1E7FFF7D6FE002F80D097
S315000032B0BCE7A36279E700BFB1F934300A6B002B93
S315000032C00FDD002310B4043A1C4642F8044FB1F94E
S315000032D0340001339842F8DC00235DF8044BCB86BA
S315000032E070470023CB867047F8B5B1F93400B1F9C1
S315000032F03660431EB3420C461746096B06DD41F89D
S315000033002670B0000136E6860844F8BD103000B2DB
S31500003310A0860122800002F0D1FEB4F93430206389
S315000033209E420146EBDA3546B00001EB86030022E9
S3150000333043F8042BB4F934C00135AC45F8DC41F848
S3150000334026700136E6860844F8BD00BF2DE9F8432D
S31500003350002408604C61D0F87C900D468046B9F197
S31500003360000F6ED0D9F800304B60202002F0A2FE8C
S3150000337006466861002861D0D9F80800800002F08E
S3150000338099FE07463060002858D0D9F808107160B9
S31500003390D8F88830D9F8042003FB02F2B260D9F8D5
S315000033A00430736149B12346214647F82310D6E914
S315000033B0007201339A42F8D8B268F76002EB8202D3
S315000033C0D8F818009200042106F0E8FB386033684C
S315000033D01B68002B32D0336172687369F261B36186
S315000033E06868E86050B3A86043682B618168002371
S315000033F01022C5E90631C5E90A33AA86402002F043
S3150000340059FE2863D0B16B6903B31B681A68B5F916
S315000034103430002B09DD0023011F1C4641F8044F00
S31500003420B5F9340001338342F8DB0023EB862946E5
S315000034304046FFF759FF0120BDE8F8830020BDE8AC
S31500003440F8831146FFF770F96860CAE7D8F8843048
S3150000345013F0120F6B6802D01A69002AD7D15A6886
S31500003460D5E700BF38B5C36F04463BB11B681B6880
S3150000347000221A60C36F1968FFF79AF92169656916
S315000034800023C4E9043311B1204603F0F9F91DB154
S315000034902946204603F0F4F90025D4F8B401656006
S315000034A0C4E90255656302F007FEC4E96D55A069DB
S315000034B000F0D6FDA56184F8C60138BD70B5054695
S315000034C04FF4EA7002F0F6FD0446002851D00223BC
S315000034D0002683644FF40013C0E90666C0E913664C
S315000034E08566A0F8C6614365FEF7E2FC6906C4E995
S315000034F00800C4E90A003ED4702002F0DBFD012278
S315000035006266CC220023C4F888206A07C4E90C034B
S31500003510C4E90F33C4E91B33C4E90433C4E90233F5
S3150000352084F8C631A36384F8C43163646367A4F87E
S315000035307830636054BF05230423E3652B0703D566
S31500003540E36D23F00403E365002540F227122946C4
S315000035502566E56704F18C0030F06CFE074BC4F875
S31500003560805019682160082284F8C85184F8C52162
S315000035701C60204670BD3046C1E700BF9C05FE1F9B
S3150000358038B58569044615B1FFF76CFF0546124B41
S315000035901A461B68A34204D0002BF9D102252846FF
S315000035A038BD23681360E1690023236229B12046F0
S315000035B0FEF728FDE1690029F9D1E06F08B102F0B4
S315000035C07BFD206B08B102F077FD002320462363C4
S315000035D002F072FD284638BD9C05FE1F70B50446F4
S315000035E000F018FDA06100285CD03B22002104F504
S315000035F0BC7030F01FFEE56F7DB1D4F88810204610
S31500003600FFF792F828600646D4F888102046FFF7A0
S315000036108BF830602B681A681360D4F8882020462F
S31500003620114603F0F1F8D4F88820206111462046AF
S3150000363003F0EAF823696061D3B1C8B10025C4E993
S315000036400233606065634FF4007002F033FD174B80
S3150000365084F8C9514022C4E96D00C4E96F23A0690A
S315000036600A2106F0CFF938B9002084F8C60170BDEA
S31500003670012084F8C60170BDFF23A0690A212A46ED
S3150000368006F0A8F9A0692A460A2106F0AFF9FF2834
S3150000369008BF01234FF0000008BF84F8C93184F841
S315000036A0C601E4E7052084F8C60170BD3D2D000083
S315000036B080697047B0B338B5436E8B420D460446F9
S315000036C019D0082B1BD008290BD003F0E1F9626A48
S315000036D092F80E31002143F0010382F80E3184F88E
S315000036E0C611626A656692F80E31082D43F0010331
S315000036F082F80E310FD0002084F8C60138BD426A28
S31500003700616692F80E3143F0010382F80E3103F040
S31500003710ABF9082DEFD1204603F080F9002084F89C
S31500003720C60138BD022070470023A0F86C1080F84F
S31500003730C6311846704700BF38B110B5044600F0D0
S31500003740A7FC002084F8C60110BD0220704700BF08
S3150000375010B5C468FFF7F2FA636822695B689A429B
S3150000376001D0012010BD60690028FBD00268036902
S315000037701068C01AB0FA80F0400910BD2DE9F84F64
S315000037801D461746DDE90B32DDF82890D2F81041C8
S315000037900646DA0709FB09F054BFA3464FF0000BB3
S315000037A005FB050013F0020F08BFA246884618BFA6
S315000037B04FF0000A02F0FAFB0D9B240194FBF0F493
S315000037C003B11C60C9F1000004FB00F005FB04F422
S315000037D024114544001104FB05F5B94400FB1959B1
S315000037E00C9BC8F100080AEB2912D3F81031B2611C
S315000037F000FB08F204FB172200FB07F7C6E90104E9
S3150000380004FB08775B083461306203EB22130BEB91
S315000038102717404264423360F7607061F461BDE887
S31500003820F88F00BF2DE9F04F83B01E46DDF83090CB
S315000038300D9B019113F0010F074609FB09F006FBEA
S31500003840060014BF4FF0000A4FF4803A13F0020F3F
S315000038500E9D904614BF4FF0000B4FF4803B02F0D4
S31500003860A5FB4FF48013019993FBF0F005B1286096
S31500003870C9F1000500FB05F52D1106FB00F00E440D
S315000038804942041105FB01F3C14404FB183304FB50
S3150000389006F605FB08F805FB196604FB01881B11F3
S315000038A0C7E901540BEB26163C613D620AEB281270
S315000038B003F500436D426442BE613B60FA607D6180
S315000038C0FC6103B0BDE8F08F2DE9F043DDE9076444
S315000038D014F0010F14BF4FF000084FF4803814F0B5
S315000038E0020F14BF4FF0000E4FF4803E002B099FCD
S315000038F071DB002E1FDBB34200F390801D0495FBA5
S31500003900F6F505FB02FC4FEA2C1C0B449419CCEB94
S31500003910013C05FB01F105FB03F3091152422403A7
S31500003920C1EB023204EB231407B13E605A4E6942E2
S315000039304FF4803321E0C6F10009994502EB0604F5
S315000039402DDA5D42360496FBF5F606FB01FC06FB16
S3150000395002F54FEA2C1C524206FB04F4CCEB023C67
S315000039602A112411A2EB01321944C4EB013407B128
S315000039703B60494973424FF480357444C0E90534CD
S3150000398042440CF50043C0E90036C0E90716C260A0
S3150000399085600561BDE8F083C6F1000994191D0430
S315000039A00B4495FBF9F5240305FB03F3C4EB231441
S315000039B005FB02F305FB01F61B114942C3EB013C73
S315000039C03111C1EB02320FB1C7F80090324B694298
S315000039D04FF48036D1E7002E3BDB5C42B4421FDD5C
S315000039E09519CC184FEA064C9CFBF3F606FB01FC36
S315000039F024034FEA2C1C644206FB05F50903CCEBB5
S31500003A00023C06FB02F2A4EB251401EB221207B1DD
S31500003A103B60214D73424FF48031AEE7941990E735
S31500003A201D040B4495FBF6F505FB03F905FB02F3B4
S31500003A301B119419C3EB013C05FB01F1091152421C
S31500003A402403C1EB023204EB2914002F7FF46DAF7F
S31500003A506CE7B342A0DA9519CC184FEA064C9CFBEA
S31500003A60F3F606FB01FC24034FEA2C1C644206FB1A
S31500003A7005F50903CCEB023C06FB02F2A4EB251488
S31500003A8001EB2212002FC4D05B423B60024D734211
S31500003A904FF4803171E700BF0000FFFF10B4002B28
S31500003AA0019C2ADB002C13DBA34237DC1B0493FBAF
S31500003AB0F4F404FB02F31B11C3EB0132384B0299F9
S31500003AC001B101328460C0E900235DF8044B704700
S31500003AD003EB010C6142224499420FFA8CFC12B2AC
S31500003AE032DA2404120394FBF3F303FB0CFCC2EB5F
S31500003AF02C125B424FF48034E1E7002C31DBC3F13A
S31500003B00000CA44516DD240494FBF3F303FB01FC2F
S31500003B104FEA2C1C224CCCEB0232D0E724041203D1
S31500003B2094FBF3F303FB01F1C2EB21125B424FF46A
S31500003B308034C4E71B0493FBF4F404FB02F2121175
S31500003B40174BC2EB0132BAE71B044FEA0C3C93FB5E
S31500003B50F4F404FB02F2CCEB221264424FF48033FD
S31500003B60ADE703EB010C2244A3420FFA8CFC12B220
S31500003B700CDD1B044FEA0C3C93FBF4F404FB02F14E
S31500003B80CCEB211264424FF4803398E7240494FB73
S31500003B90F3F303FB0CF10911014CC1EB02328EE782
S31500003BA00000FFFF70B5059D049ED5F81041002B5F
S31500003BB08E462DDB002E12DBB3422EDD4FEA064C7D
S31500003BC012039CFBF3F303FB01F1C2EB211183FB10
S31500003BD00423120C42EA0342524223462BE0B11858
S31500003BE072429E449A420FFA8EFE09B240DB1B04D3
S31500003BF04FEA0E3E93FBF6F303FB01F183FB04321F
S31500003C001B0C43EA0243CEEB21115B42224612E033
S31500003C10002E36DB5942B1421ADC1B0493FBF6F345
S31500003C2003FB02F183FB043209111B0C43EA024336
S31500003C30C1EB0E31624204EBD474B5F91450426004
S31500003C40090191FBF5F101EB64040460836070BD2A
S31500003C504FEA064C9CFBF3F303FB0EF10911C1EB93
S31500003C60023183FB0423120C42EA03426342E2E779
S31500003C703204090392FBF3F303FB0EFEC1EB2E1194
S31500003C80A5E79E44B118B3420FFA8EFE0FFA81FCE7
S31500003C9007DD1B044FEA0E3E93FBF6F303FB0CF124
S31500003CA0ACE7320492FBF3F303FB0EF10911C1EB0F
S31500003CB00C3183FB043C1A0C42EA0C426342BAE71D
S31500003CC010B4019C002C03DA1944224409B212B242
S31500003CD004FB01F103FB121202996442120224034F
S31500003CE01B0301B1013202F50042C0E900248360E2
S31500003CF05DF8044B704700BF2DE9F041069D002D8D
S31500003D0006460C4690461F4604DA1C44AA1824B2FE
S31500003D100FFA82F805FB05F007FB070002F046F9EB
S31500003D206D424FF48012B2FBF0F000FB05F56442E1
S31500003D3000FB07F72D113F1105FB04F4079B07FB5A
S31500003D401842121103B1013202F50042C6E90025FC
S31500003D50B760BDE8F08100BF8268036810B401FB5C
S31500003D6002315442846001605DF8044B704700BF25
S31500003D70F8B50D460446B1F91600B1F91410069EC1
S31500003D80C31AA86800FB03F368688A1A00FB0232AC
S31500003D902B6807991211180748BF0132DF0648BF82
S31500003DA0A2F580320127580707FA06F706D54FF421
S31500003DB00070A2F50042B040013A07435B0604D505
S31500003DC070084FF4003383401F435242C1BBD4F8FE
S31500003DD0B831311D03F10800C4F8B801C3E9001277
S31500003DE0D4F8BC31013B002BC4F8BC3164DDD4F8F7
S31500003DF0B831696803F1080006F10A02C4F8B8018F
S31500003E00C3E90021D4F8BC31013B002BC4F8BC3116
S31500003E104DDDD4F8B831AA6803F108011036C4F8AC
S31500003E20B811C3E90062D4F8BC31013B002BC4F8D9
S31500003E30BC3103DCD4F8C031204698473846F8BD7B
S31500003E40D4F8B831920103F10800311DC4F8B80165
S31500003E50C3E90012D4F8BC31013B002BC4F8BC31D5
S31500003E6020DD6B689A01D4F8B83106F10A0103F136
S31500003E700800C4F8B801C3E90012D4F8BC31013B0C
S31500003E80002BC4F8BC3104DDAA68D4F8B83192011D
S31500003E90C2E7D4F8C03120469847AA68D4F8B831AA
S31500003EA09201B9E7D4F8C03120469847D9E7D4F84B
S31500003EB0C03120469847ACE7D4F8C0312046984731
S31500003EC095E700BF0023C0E90033C0E90233C0E92B
S31500003ED0043370472DE9F0411D464B7E82B00C46F7
S31500003EE0D907089E074690460DD5E269D20705D543
S31500003EF0052D67D9304602B0BDE8F081042DF9D80A
S31500003F0026F4000602359A071AD5636BDB074FD5F0
S31500003F10052DEFD806F0807300950193B8F90230AD
S31500003F20B8F9002004F134013846FFF721FF636B2E
S31500003F300643580654BF26F4000626F4400601350B
S31500003F40A37D990719D5627E520716D5E26CD00774
S31500003F5053D5052DCED806F0807300950193B8F998
S31500003F600230B8F9002004F14C013846FFF700FF93
S31500003F70A37D0643013526F400065907BAD5637EAC
S31500003F801A07B7D5636EDB073ED5052DB2D8009567
S31500003F9004F1640106F08074B8F90230B8F9002023
S31500003FA001943846FFF7E4FE064326F40006A1E72F
S31500003FB0042D9FD8A37D990726F4000605F1020576
S31500003FC0DBD5C0E706F0807300950193B8F902309F
S31500003FD0B8F9002004F11C01FFF7CAFEE36959068F
S31500003FE0637E40EA060054BF20F4000620F4400633
S31500003FF09A0705F10105A3D587E7042D3FF67AAFA9
S3150000400026F400060235B8E7042D98BF26F400060C
S3150000401070E700BF38B50546084605F095FC04462E
S31500004020B8B10122114605F0E1FC420144BF01236B
S3150000403085F8C8318303C5F880000CD5EB6D3122B5
S315000040400121204605F0C6FC204605F0D3FDC5F843
S315000040508400204638BDAB6E43F00103AB66EDE746
S3150000406008B505F0A3FC012814BF0220002008BDF6
S3150000407013460A46012105F0ADBC00BF10B5044643
S3150000408000220121204605F0B1FCC307F8D410BD7B
S3150000409038B5836E84690546D8070AD50121002202
S315000040A0204605F0A3FC8107F8D138BDAB6E9A0710
S315000040B007D500220121204605F098FC0307F5D418
S315000040C0F3E7C8220421204605F00CFDF1E700BF06
S315000040D070B5846E0B6BE40705460BD41A68AAB15B
S315000040E090F9C911806991B1BDE870403222012171
S315000040F005F070BC92B94C6814B907E024682CB17D
S3150000410061682846FEF74CFD0328F7D170BD1346BB
S31500004110BDE870403222012105F05CBCBDE870406C
S315000041201968FEF73DBD00BF2DE9F04F2DED028B5E
S31500004130A9B09B46BDF9D060BDF9D4300896A3EB73
S315000041400B09B61A099356EA0903BDF9D87000F0AF
S315000041505B8291F8D6A007F10F039046BAF1010FE2
S315000041604FEA630204460D460C92079200F08882DD
S31500004170379B13F400530A9340F04C820A9B129328
S31500004180BDF81C200B92002E40F35A82089B0F3379
S31500004190134423F00F03ADF86430A8EB020323F0B9
S315000041A00F03B9F1000FADF8603040F35A82099B56
S315000041B00B9A0F33134423F00F03ADF86630ABEBC5
S315000041C0020323F00F03ADF8623018A9204604F06D
S315000041D0DBFC002800F01882BDF86020A8EB02087E
S315000041E0BDF8622015921FFA8BF30E939B1A1BB231
S315000041F02F2F0FFA88FB0D9304DCBAF1020F08BFCC
S315000042004FF0010A379B03F00303032B95F8D530D3
S3150000421003F0030300F0C882032B00F06584379B8C
S315000042200D9ACDE900931CAB08EE103A18461F2FE5
S3150000423017AB02935946334640F33682FFF7F2FA3C
S315000042401C9B03EBC7231C93BAF1010F4FEA0733FC
S315000042501393379B00F0088303F001030F93379BFA
S3150000426003F0020311932946204602F05BFCD5F8C1
S3150000427028311093B9F1000F40F38F82F60FAB7D12
S31500004280109ADFF8108C02F4185213F0060F42EA67
S31500004290080814D00A9ACDF80080BAF1020F14BFAC
S315000042A002230523002A18BF052318AA29462046FB
S315000042B0FFF710FE10F4000F804608BF002695F8A1
S315000042C0D43098072DD50D9AA5F8922095F80E2191
S315000042D0A5F890B042F0080285F80E2119074FF0B4
S315000042E02102EA67209A40F1E282219952421201A4
S315000042F00801D5F8D01092FBF1F2C5F88420D5F864
S31500004300CC2090FBF1F0C5F880001003C5F88800BA
S31500004310580706D5179B1B0193FBF1F31344C5F809
S31500004320CC30334618AA2946204601F035FF3346DD
S3150000433018AA2946204603F079FDBAF1020F00F0CB
S3150000434039820F9B002B00F08A82002314930023EE
S3150000435048F480680E93379B9A0500F199831F9B5A
S31500004360B9F1000F03F50043C8BF01331F93119B3A
S315000043708BB10E9B002B00F0A08248F48068379B1F
S315000043805B0500F19683229BB9F1000F03F500430C
S31500004390D8BF01332293379B13F4C05F15D01F0596
S315000043A005D51FAB93E80700389B83E80700379BCA
S315000043B0D80405D522AA07CA389B0C3383E8070020
S315000043C018AB03CB399B18605960002E40F033823E
S315000043D037460A9BB3B1129B03F58039379B990583
S315000043E006D53A9BD3E9002352EA030140F03E8406
S315000043F0379B5A0506D53A9BD3E9022352EA0301B5
S3150000440040F0D283D4F8B8311C9A03F10801C4F8FD
S31500004410B8115A6004221A60D4F8BC31013B002B53
S31500004420C4F8BC3103DCD4F8C03120469847D4F830
S31500004430B8311D9A03F10801C4F8B8115A600A226E
S315000044401A60D4F8BC31013B002BC4F8BC3103DC44
S31500004450D4F8C03120469847D4F8B8311E9A03F1F3
S315000044600801C4F8B8115A6010221A60D4F8BC3199
S31500004470013B002BC4F8BC3103DCD4F8C031204624
S3150000448098470E9B002B00F01581D4F8B8311F9A7F
S3150000449003F10801C4F8B8115A6008221A60D4F86A
S315000044A0BC31013B002BC4F8BC3103DCD4F8C0316D
S315000044B020469847D4F8B831209A03F10801C4F889
S315000044C0B8115A600E221A60D4F8BC31013B002B99
S315000044D0C4F8BC3103DCD4F8C03120469847D4F880
S315000044E0B831219A03F10801C4F8B8115A601422B0
S315000044F01A60D4F8BC31013B002BC4F8BC3103DC94
S31500004500D4F8C03120469847D4F8B831229A03F13E
S315000045100801C4F8B8115A6005221A60D4F8BC31F3
S31500004520013B002BC4F8BC3103DCD4F8C031204673
S315000045309847D4F8B831239A03F10801C4F8B811A2
S315000045405A600B221A60D4F8BC31013B002BC4F828
S31500004550BC3103DCD4F8C03120469847D4F8B831D2
S31500004560249A03F10801C4F8B8115A6011221A609E
S31500004570D4F8BC31013B002BC4F8BC3103DCD4F8C1
S31500004580C03120469847D4F8B831162203F1080105
S31500004590C4F8B8111A60139A5A60D4F8BC31013BBA
S315000045A0002BC4F8BC3103DCD4F8C0312046984750
S315000045B0D4F8B831002203F10801C4F8B811C3E9F0
S315000045C00028D4F8BC31013B9342C4F8BC3103DC6B
S315000045D0D4F8C031204698470C9A079B134403F140
S315000045E00F084FEA281818A942462046002E5ED02A
S315000045F002F0F2FDBAF1020F00F06481012029B049
S31500004600BDEC028BBDE8F08F002029B0BDEC028B1B
S31500004610BDE8F08F95F8D730042B00F03E81B5F950
S31500004620D83003EB670303EB83021B03129342F3B9
S315000046308F030793BDF81C200B92002E3FF7A6AD03
S3150000464008F10F03134423F00F03ADF86430089B01
S315000046509B1A23F00F03B9F1000FADF860303FF756
S31500004660A6AD0B9A0BF10F03134423F00F03ADF81D
S315000046706630099B9B1A23F00F03ADF86230A4E560
S31500004680379B03F00303032B3FF472AD02EB4203A7
S31500004690C2EBC30343F30F130793379B13F4005383
S315000046A00A933FF46BADB5E7FFF70EF9C8E502F0E4
S315000046B005FD9FE7D4F8B8311F9A03F10801C4F845
S315000046C0B8115A6005221A60D4F8BC31013B002BA0
S315000046D0C4F8BC3103DCD4F8C03120469847D4F87E
S315000046E0B831209A03F10801C4F8B8115A600B22B8
S315000046F01A60D4F8BC31013B002BC4F8BC3103DC92
S31500004700D4F8C03120469847D4F8B831219A03F13D
S315000047100801C4F8B8115A6011221A60D4F8BC31E5
S31500004720013B002BC4F8BC3103DCD4F8C031204671
S315000047309847D4F8B831229A03F10801C4F8B811A1
S315000047405A6008221A60D4F8BC31013B002BC4F829
S31500004750BC3103DCD4F8C03120469847D4F8B831D0
S31500004760239A03F10801C4F8B8115A600E221A60A0
S31500004770D4F8BC31013B002BC4F8BC3103DCD4F8BF
S31500004780C03120469847D4F8B831249A03F108017D
S31500004790C4F8B8115A601422E9E600F0FF81002E31
S315000047A0D4BF002601266AE5032B00F0C0824FF035
S315000047B0000A34E510370F9B79101491002B00F096
S315000047C05281BDF86030089AD31A1BB2002E40F011
S315000047D0C081BDF862200998821A12B203EB410724
S315000047E0002F4FEA410118464FF0000A1EDD01274F
S315000047F00E975718002F11DDBDF96470BDF960C022
S31500004800401AA7EB0C07B84208DABDF96600BDF9F5
S315000048106270511AC01B8142C0F225830F9B002B88
S315000048203FF4A5AD0E9B002B3FF491AD012348F458
S3150000483000580E938FE5BDF96230BDF96670FF1A18
S315000048403F1118EE100A3946FFF786FA39461FA8B7
S31500004850FFF782FA394622A8FFF77EFAB9E5119BDF
S315000048604BBB14930E9396E513F001030F9306D1F9
S315000048701F9B3A03A2F5803203EB62031F93379B1B
S3150000488013F0020311937FF4EEAC229B3A03A2F5D8
S31500004890803203EB62032293E5E4079B03EB830379
S315000048A043F38F0307937B101B03129368E41001F5
S315000048B0219A12011DE50F9B1493002348F400581A
S315000048C00E935CE5BDF82090DDF850B0BDF824A04D
S315000048D01FFA8BF309F10F021A4422F00F02ADF80A
S315000048E06C200AF10F021A4422F00F02ADF86E2076
S315000048F0A9EB0302AAEB030322F00F0223F00F0336
S315000049001AA92046ADF86820ADF86A3004F03CF9E3
S3150000491000283FF473AEBDF86A30CDF804B0AAEBB8
S31500004920030A0FFA8AF30093BDF868304FF0000AC5
S31500004930A9EB03031BB2524629462046CDE903AA3A
S31500004940CDF808A0FDF722FD109BDFF84C9503F487
S3150000495000731AAA2946204643EA0909534601F07C
S315000049601BFC53461AAA2946204603F05FFAAB7D84
S3150000497013F0060F40F00881002E00F0FB81BDF910
S315000049806020BDF968302498BDF962109B1A1A118F
S31500004990BDF96A3040425B1A2490C7EB2317229B6D
S315000049A023995B4201FB123300FB1737D4F8B83169
S315000049B007F1011703F108010622C4F8B811C3E98B
S315000049C00027D4F8BC31013B002BC4F8BC3103DC12
S315000049D0D4F8C03120469847239B5A42D4F8B831C0
S315000049E00C2103F10800C4F8B801C3E90012D4F899
S315000049F0BC31013B002BC4F8BC3103DCD4F8C03118
S31500004A0020469847249B5A42D4F8B831122103F124
S31500004A100800C4F8B801C3E90012D4F8BC31013B60
S31500004A20002BC4F8BC3103DCD4F8C03120469847CB
S31500004A30D4F8B831002203F10801C4F8B811C3E96B
S31500004A400029D4F8BC31013B9342C4F8BC3103DCE5
S31500004A50D4F8C0312046984748F30B121AA92046CD
S31500004A6002F02CFBCAE5002E79D10D9A119B002B82
S31500004A7040F0978048F400580BEB4103002B4FEAB7
S31500004A804101584640F34C8100275B460E97B0E63D
S31500004A903A9B0D9A5B680093002301933A9B594613
S31500004AA01B681FA8FFF70CF90B9B5B001BB2079353
S31500004AB05DE4099BBDF86220BDF860109A1A089B58
S31500004AC0591A3A9BDB685B4200933A9B9B6801202C
S31500004AD05B42019012B209B222A8FFF7F1F8079BD8
S31500004AE05B001BB2079356E4379B0D9A0295CDE9FE
S31500004AF000931CAB184608EE103A17AB03935946C1
S31500004B003346FEF73BFED5F810311C9907FB03F23E
S31500004B1001EB6211BAF1010F1C914FEA22114FEA23
S31500004B20621228D1379810F001000F9002D11F9819
S31500004B3010441F90379810F00200119002D122986D
S31500004B40024422925B08A3F580330B441393FFF7CC
S31500004B508ABBBDF866200998121A12B23EE6BDF865
S31500004B606620159B13441A46BDF86230D21A0E9B76
S31500004B70D21A12B27AE7379A02F001020F92379AE6
S31500004B8002F002021192DDE7CDF8009029460323D8
S31500004B901AAA2046FFF79EF98146EDE64E46FFF734
S31500004BA06EBB4FF0000A67E709990092BDF86220D4
S31500004BB008988A1ABDF86010411A109800F48050BF
S31500004BC040EA0808002001905B4212B209B225A80B
S31500004BD048F00808FFF790F8002E40F03A81379B1E
S31500004BE01B0440F10481D4F8B831259A03F1080179
S31500004BF04A44C4F8B8115A6007221A60D4F8BC3186
S31500004C00013B002BC4F8BC3103DCD4F8C03120468C
S31500004C109847D4F8B831269A03F10801C4F8B811B8
S31500004C205A600D221A60D4F8BC31013B002BC4F83F
S31500004C30BC3103DCD4F8C03120469847D4F8B831EB
S31500004C40279A03F10801C4F8B8115A6013221A60B2
S31500004C50D4F8BC31013B002BC4F8BC313FF7D2ABD2
S31500004C60D4F8C03120469847FFF7CCBB1098009285
S31500004C7000F4006040EA0808002001900D9A5B42AB
S31500004C80594625A848F00408FFF736F8002E40F0EC
S31500004C90E580379B259A13F4804FD4F8B83177D145
S31500004CA04A4403F10801C4F8B8115A6006221A6092
S31500004CB0D4F8BC31013B002BC4F8BC3103DCD4F87A
S31500004CC0C03120469847D4F8B831269A03F1080136
S31500004CD0C4F8B8115A600C221A60D4F8BC31013BF2
S31500004CE0002BC4F8BC3103DCD4F8C0312046984709
S31500004CF0D4F8B831279A03F10801C4F8B8115A60FC
S31500004D0012221A60D4F8BC31013B002BC4F8BC3126
S31500004D103FF76EABD4F8C03120469847FFF768BB23
S31500004D20119B002B7FF4C9AD0E93FFF734BB379B65
S31500004D300D9A0295CDE900931CAB184608EE103A81
S31500004D4017AB039359463346FEF718FDD5F81031D5
S31500004D501C9A07FB03F102EB61121C92379A02F0D0
S31500004D6001020F92379A02F00202091111924FF0D6
S31500004D70000AE7E6BDF96020BDF96830BDF96A7042
S31500004D8024989B1A1A11BDF96230FF1A3F1106E6E4
S31500004D90A9EB020203F10801C4F8B8115A60062211
S31500004DA01A60D4F8BC31013B002BC4F8BC3103DCDB
S31500004DB0D4F8C03120469847D4F8B831269A03F182
S31500004DC008015242C4F8B8115A600C221A60D4F88D
S31500004DD0BC31013B002BC4F8BC3103DCD4F8C03134
S31500004DE020469847279AD4F8B831524283E7D4F838
S31500004DF0B821259B02F10801A9EB0303C4F8B811F9
S31500004E00536007231360D4F8BC31013B002BC4F870
S31500004E10BC3103DCD4F8C03120469847D4F8B83109
S31500004E20269A03F108015242C4F8B8115A600D22BD
S31500004E301A60D4F8BC31013B002BC4F8BC3103DC4A
S31500004E40D4F8C03120469847279AD4F8B831524250
S31500004E50F7E625A83946FEF77FFFC0E625A83946BE
S31500004E60FEF77AFF15E70092149A01920022CDE927
S31500004E7003220292294602222046FDF787FA109B5A
S31500004E8003F4006343EA080848F4801848F08408ED
S31500004E90C4E400BF1380C000450840002DE9F04778
S31500004EA088B097B2BDF940501035C5F34F0C9EB28D
S31500004EB007F10F03634423F00F03ADF81C3006F12E
S31500004EC00F03634423F00F03ADF81E30A7EB0C036A
S31500004ED0A6EB0C0C884623F00F032CF00F0C06A94A
S31500004EE00446ADF81830ADF81AC003F04DFE10B9FF
S31500004EF008B0BDE8F087BDF81A300022CDE90322DC
S31500004F00F61A6D10BDF81830019536B20292009669
S31500004F10D8F82861FB1A1BB241462046FDF736FA3F
S31500004F2006F4007343F4800343F04103009306AA9A
S31500004F30022341462046FEF7CDFF119B0F3506465C
S31500004F402D09002B69D0139BBDF91820B3F9003049
S31500004F509B1A4FEA2319139BBDF91A20B3F90230A5
S31500004F609B1A1F11119BDA0700F189804FF0020A84
S31500004F70119B9B0753D5129B129ADB681269C3F5E6
S31500004F80803302FB0933129A526902FB0733D4F8C5
S31500004F90B8210133072102F10800C4F8B801C2E9BB
S31500004FA00013D4F8BC31013B002BC4F8BC3140F3EC
S31500004FB0C980129B1B695A42D4F8B8310D2103F1FE
S31500004FC00800C4F8B801C3E90012D4F8BC31013BAB
S31500004FD0002BC4F8BC3140F3A180129B5A69D4F867
S31500004FE0B831524203F108001321C4F8B801C3E9ED
S31500004FF00012D4F8BC31013B002BC4F8BC3140F39D
S315000050008880BAF1030F46F4805646F0080614BFAE
S315000050104FF0020A4FF0040A01E04FF0020A53462D
S3150000502006AA414600962046FEF754FFD4F8B8314A
S31500005030002203F10801C4F8B811C3E90020D4F82E
S31500005040BC31013B9342C4F8BC3103DCD4F8C03117
S315000050502046984706AA41462046002301F09CF8C0
S315000050600023414606AA204602F0E0FE20462A46D4
S3150000507006A902F023F8012008B0BDE8F087129BCC
S31500005080129A1B685268C3F5803302FB0933129AE1
S31500005090926802FB0733D4F8B8210133062102F1E6
S315000050A00800C4F8B801C2E90013D4F8BC31013BCA
S315000050B0002BC4F8BC3140DD129B5B685A42D4F821
S315000050C0B8310C2103F10800C4F8B801C3E9001295
S315000050D0D4F8BC31013B002BC4F8BC3128DD129B4F
S315000050E09B685A42D4F8B831122103F10800C4F87B
S315000050F0B801C3E90012D4F8BC31013B002BC4F857
S31500005100BC3110DD46F4006646F004064FF0030A93
S315000051102EE7D4F8C0312046984772E7D4F8C0315C
S315000051202046984759E7D4F8C03120469847E9E722
S31500005130D4F8C03120469847D1E7D4F8C03120468C
S315000051409847B9E7D4F8C0312046984731E700BF01
S315000051502DE9F04F2DED028BA7B00446BDF9CCB07A
S31500005160BDF9C8600693ABEB0300BDF9D0300F96CE
S315000051700D4609933146BDF9D4300893B61A56EA5E
S315000051800003CDE9101B0D9207D14FF000084046F1
S3150000519027B0BDEC028BBDE8F08F00FB00F095F860
S315000051A0D630079306FB060000F000FF069B089921
S315000051B0A3EB0B074FF0807393FBF0F202FB07F7AC
S315000051C002FB06F61392099A0D983F12361207FB58
S315000051D002F906FB02F807FB01F206FB01F3511484
S315000051E01291591400EB694A1491A0EB6941069893
S315000051F00C914FEA694C4FEA684E00EB6849A0EB08
S3150000520068480F9800EB6241A0EB62420E910B9248
S31500005210ABEB63410BEB6342079B0A91022B00F059
S31500005220C782369B03F00303032B00F0D182079B52
S31500005230012B00F07683DDE90B300E991292514571
S31500005240A8BF51468342A8BF03469942B4BF21F086
S315000052500F0323F00F031BB20E99ADF85830DDE9AA
S315000052600B305145B8BF51468342B8BF03469942F9
S31500005270CCBF01F10F030F3323F00F031BB2ADF8C0
S315000052805C300A9B91454946A8BF11464345A8BFD5
S3150000529043469942B4BF21F00F0323F00F031BB21C
S315000052A0ADF85A300A9B91454946B8BF1146434569
S315000052B0B8BF43469942CCBF01F10F030F3323F029
S315000052C00F031BB216A92046ADF85E3003F05CFC56
S315000052D000283FF45AAFBDF858100F9BBDF85AE0AE
S315000052E01F97581A069B1B96A3EB0E0C0D9B0FFAE5
S315000052F08CF2A3EB010C0FFA8CF300B2ABEB0E0CA5
S3150000530006FB00F00FFA8CFC07FB1C00001100F5F1
S3150000531000401D9007FB02F006FB1300001100F58C
S31500005320803015921A90129A95F8D50014937F4200
S315000053301C9700F00300A9EB02070E9AA9EB0E03D7
S315000053407642AAEB01010328AAEB02091E961AB2BD
S3150000535009B200F0C48220AB0026184608EE903A47
S3150000536000974B460196FEF799FB23AB08EE103AE1
S315000053700A9B0C98BDF85A20BDF858100196A3EB6D
S31500005380080300930B9B411AA8EB02021B1A12B2E8
S3150000539018EE100A09B2FEF781FB209B03F50043C5
S315000053A02093239B03F500432393079B012B00F0D7
S315000053B077822946204601F0B5FBD5F828310E93B1
S315000053C0079B022B369B40F0F08113F0010A03D1B4
S315000053D00E9B43F400730E93369B990703D40E9BE2
S315000053E043F480630E9395F8D4309A072ED5149A19
S315000053F0A5F89020159AA5F8922095F80E2142F06E
S31500005400080285F80E211E074FF02102EA671B9A53
S3150000541040F1D1821C99524212010801D5F8D010F0
S3150000542092FBF1F2C5F88420D5F8CC2090FBF1F080
S31500005430C5F880001003C5F88800580706D5139BE9
S31500005440180190FBF1F11144C5F8CC100A9BA8EBAA
S315000054500303002B40F3BF81DDE90B239A1A002AD0
S31500005460C0F2C381002316AA2946204600F094FE06
S31500005470002316AA2946204602F0D8FC069BBDF951
S315000054805A909B45AABF069BABEB0909A3EB0909FA
S315000054900027DDE908010E9BAA7D814203F4F05343
S315000054A0B8BF014643F4400312F0060F43F00F0362
S315000054B009EB211940F03A81BAF1000F00F046815C
S315000054C0089A52100B9201224FF000080A92002F00
S315000054D040F04E81BA46D4F8B821002102F1080006
S315000054E0C4F8B801C2E90013D4F8BC31013B8B42C1
S315000054F0C4F8BC3103DCD4F8C0312046984795F88F
S31500005500D53003F00303032B00F027821A9AD4F850
S31500005510B831042103F10800C4F8B801C3E9001248
S31500005520D4F8BC31013B002BC4F8BC3103DCD4F801
S31500005530C03120469847D4F8B8311B9A03F10801C8
S31500005540C4F8B8115A600A221A60D4F8BC31013B7B
S31500005550002BC4F8BC3103DCD4F8C0312046984790
S31500005560D4F8B8311C9A03F10801C4F8B8115A608E
S3150000557010221A60D4F8BC31013B002BC4F8BC31B0
S3150000558003DCD4F8C03120469847D4F8B8311D9AC8
S3150000559003F10801C4F8B8115A6005221A60D4F85C
S315000055A0BC31013B002BC4F8BC3103DCD4F8C0315C
S315000055B020469847D4F8B8311E9A03F10801C4F87A
S315000055C0B8115A600B221A60D4F8BC31013B002B8B
S315000055D0C4F8BC3103DCD4F8C03120469847D4F86F
S315000055E0B8311F9A03F10801C4F8B8115A601122A4
S315000055F01A60D4F8BC31013B002BC4F8BC3103DC83
S31500005600D4F8C03120469847D4F8B831209A03F12F
S315000056100801C4F8B8115A6006221A60D4F8BC31E1
S31500005620013B002BC4F8BC3103DCD4F8C031204662
S315000056309847D4F8B831219A03F10801C4F8B81193
S315000056405A600C221A60D4F8BC31013B002BC4F816
S31500005650BC3103DCD4F8C03120469847D4F8B831C1
S31500005660229A03F10801C4F8B8115A6012221A608E
S31500005670D4F8BC31013B002BC4F8BC3103DCD4F8B0
S31500005680C03120469847D4F8B831239A03F108016F
S31500005690C4F8B8115A6007221A60D4F8BC31013B2D
S315000056A0002BC4F8BC3103DCD4F8C031204698473F
S315000056B0D4F8B831249A03F10801C4F8B8115A6035
S315000056C00D221A60D4F8BC31013B002BC4F8BC3162
S315000056D003DCD4F8C03120469847D4F8B831259A6F
S315000056E003F10801C4F8B8115A6013221A60D4F8FD
S315000056F0BC31013B002BC4F8BC3103DCD4F8C0310B
S31500005700204698474A4616A92046002F00F0848076
S3150000571001F062FD079B022B00F084804FF0010828
S31500005720404627B0BDEC028BBDE8F08F009316AA69
S31500005730042329462046FEF7CDFB10F4000F03464E
S3150000574008BF0027BAF1000F7FF4BAAE369A12F0FE
S31500005750020200F03481099ACDF828A052100B926B
S31500005760069A11920D9A1092D046002F3FF4B2AECF
S31500005770BDF95A20BDF95EA00C93AAEB020A4FEAC6
S315000057802A1A1AA85146FEF7E7FA51461DA8FEF74F
S31500005790E3FA18EE900A5146FEF7DEFA18EE100A02
S315000057A05146FEF7D9FA0C9B95E603F0010A1AE674
S315000057B0099B2F2B03DC369B43F001033693089B92
S315000057C02F2B3FF72EAD369B43F00203369328E589
S315000057D0002307932FE5002F4A463FF740AE3FF4DC
S315000057E041AEB9F1000F7FF73DAE012316AA294657
S315000057F0204600F0D1FC012316AA2946204602F0D5
S3150000580015FB069BBDF95E909B45B4BFA9EB03094A
